{
  "address": "0x80C908E574cFD9168D5f2eEc7Dd7C44B1624eBb1",
  "abi": [
    {
      "inputs": [
        {
          "internalType": "address",
          "name": "vrfCoordinator",
          "type": "address"
        },
        {
          "internalType": "uint256",
          "name": "entranceFee",
          "type": "uint256"
        },
        {
          "internalType": "bytes32",
          "name": "gasLane",
          "type": "bytes32"
        },
        {
          "internalType": "uint64",
          "name": "subscriptionId",
          "type": "uint64"
        },
        {
          "internalType": "uint32",
          "name": "callbackGasLimit",
          "type": "uint32"
        },
        {
          "internalType": "uint256",
          "name": "interval",
          "type": "uint256"
        }
      ],
      "stateMutability": "nonpayable",
      "type": "constructor"
    },
    {
      "inputs": [
        {
          "internalType": "address",
          "name": "have",
          "type": "address"
        },
        {
          "internalType": "address",
          "name": "want",
          "type": "address"
        }
      ],
      "name": "OnlyCoordinatorCanFulfill",
      "type": "error"
    },
    {
      "inputs": [],
      "name": "Raffle_NotEnoughETHEntered",
      "type": "error"
    },
    {
      "inputs": [],
      "name": "Raffle_NotOpen",
      "type": "error"
    },
    {
      "inputs": [],
      "name": "Raffle_TransferFailed",
      "type": "error"
    },
    {
      "inputs": [
        {
          "internalType": "uint256",
          "name": "currentBalance",
          "type": "uint256"
        },
        {
          "internalType": "uint256",
          "name": "numPlayers",
          "type": "uint256"
        },
        {
          "internalType": "uint256",
          "name": "raffleState",
          "type": "uint256"
        }
      ],
      "name": "Raffle_UpkeepNotNeeded",
      "type": "error"
    },
    {
      "anonymous": false,
      "inputs": [
        {
          "indexed": true,
          "internalType": "address",
          "name": "player",
          "type": "address"
        }
      ],
      "name": "RaffleEnter",
      "type": "event"
    },
    {
      "anonymous": false,
      "inputs": [
        {
          "indexed": true,
          "internalType": "uint256",
          "name": "requestId",
          "type": "uint256"
        }
      ],
      "name": "RequestRaffleWinner",
      "type": "event"
    },
    {
      "anonymous": false,
      "inputs": [
        {
          "indexed": true,
          "internalType": "address",
          "name": "winner",
          "type": "address"
        }
      ],
      "name": "WinnerPicked",
      "type": "event"
    },
    {
      "inputs": [
        {
          "internalType": "bytes",
          "name": "",
          "type": "bytes"
        }
      ],
      "name": "checkUpkeep",
      "outputs": [
        {
          "internalType": "bool",
          "name": "upKeepNeeded",
          "type": "bool"
        },
        {
          "internalType": "bytes",
          "name": "",
          "type": "bytes"
        }
      ],
      "stateMutability": "nonpayable",
      "type": "function"
    },
    {
      "inputs": [],
      "name": "enterRaffle",
      "outputs": [],
      "stateMutability": "payable",
      "type": "function"
    },
    {
      "inputs": [],
      "name": "getEntranceFee",
      "outputs": [
        {
          "internalType": "uint256",
          "name": "",
          "type": "uint256"
        }
      ],
      "stateMutability": "view",
      "type": "function"
    },
    {
      "inputs": [],
      "name": "getInterval",
      "outputs": [
        {
          "internalType": "uint256",
          "name": "",
          "type": "uint256"
        }
      ],
      "stateMutability": "view",
      "type": "function"
    },
    {
      "inputs": [],
      "name": "getLatestTimeStamp",
      "outputs": [
        {
          "internalType": "uint256",
          "name": "",
          "type": "uint256"
        }
      ],
      "stateMutability": "view",
      "type": "function"
    },
    {
      "inputs": [],
      "name": "getNumWords",
      "outputs": [
        {
          "internalType": "uint256",
          "name": "",
          "type": "uint256"
        }
      ],
      "stateMutability": "pure",
      "type": "function"
    },
    {
      "inputs": [
        {
          "internalType": "uint256",
          "name": "index",
          "type": "uint256"
        }
      ],
      "name": "getPlayer",
      "outputs": [
        {
          "internalType": "address",
          "name": "",
          "type": "address"
        }
      ],
      "stateMutability": "view",
      "type": "function"
    },
    {
      "inputs": [],
      "name": "getRaffleState",
      "outputs": [
        {
          "internalType": "enum Raffle.RaffleState",
          "name": "",
          "type": "uint8"
        }
      ],
      "stateMutability": "view",
      "type": "function"
    },
    {
      "inputs": [],
      "name": "getRecentWinner",
      "outputs": [
        {
          "internalType": "address",
          "name": "",
          "type": "address"
        }
      ],
      "stateMutability": "view",
      "type": "function"
    },
    {
      "inputs": [
        {
          "internalType": "bytes",
          "name": "",
          "type": "bytes"
        }
      ],
      "name": "performUpkeep",
      "outputs": [],
      "stateMutability": "nonpayable",
      "type": "function"
    },
    {
      "inputs": [
        {
          "internalType": "uint256",
          "name": "requestId",
          "type": "uint256"
        },
        {
          "internalType": "uint256[]",
          "name": "randomWords",
          "type": "uint256[]"
        }
      ],
      "name": "rawFulfillRandomWords",
      "outputs": [],
      "stateMutability": "nonpayable",
      "type": "function"
    }
  ],
  "transactionHash": "0x70852c44f7e07ba82e481f652abc1365d226d4caddbc62aa17f0d6544fc87b0b",
  "args": [
    "0x2ca8e0c643bde4c2e08ab1fa0da3401adad7734d",
    "10000000000000",
    "0x79d3d8832d904592c0bf9818b621522c988bb8b0c05cdc3b15aea1b6e8db0c15",
    "3486",
    "500000",
    "30"
  ],
  "numDeployments": 6,
  "solcInputHash": "4e78af3432604618627120a0c6c874a4",
  "bytecode": "0x6101606040523480156200001257600080fd5b50604051620018fe380380620018fe833981810160405281019062000038919062000294565b858073ffffffffffffffffffffffffffffffffffffffff1660808173ffffffffffffffffffffffffffffffffffffffff1681525050508460a081815250508573ffffffffffffffffffffffffffffffffffffffff1660c08173ffffffffffffffffffffffffffffffffffffffff16815250508360e081815250508267ffffffffffffffff166101008167ffffffffffffffff16815250508163ffffffff166101208163ffffffff16815250506000600160146101000a81548160ff021916908360018111156200010d576200010c62000330565b5b0217905550426002819055508061014081815250505050505050506200035f565b600080fd5b600073ffffffffffffffffffffffffffffffffffffffff82169050919050565b6000620001608262000133565b9050919050565b620001728162000153565b81146200017e57600080fd5b50565b600081519050620001928162000167565b92915050565b6000819050919050565b620001ad8162000198565b8114620001b957600080fd5b50565b600081519050620001cd81620001a2565b92915050565b6000819050919050565b620001e881620001d3565b8114620001f457600080fd5b50565b6000815190506200020881620001dd565b92915050565b600067ffffffffffffffff82169050919050565b6200022d816200020e565b81146200023957600080fd5b50565b6000815190506200024d8162000222565b92915050565b600063ffffffff82169050919050565b6200026e8162000253565b81146200027a57600080fd5b50565b6000815190506200028e8162000263565b92915050565b60008060008060008060c08789031215620002b457620002b36200012e565b5b6000620002c489828a0162000181565b9650506020620002d789828a01620001bc565b9550506040620002ea89828a01620001f7565b9450506060620002fd89828a016200023c565b93505060806200031089828a016200027d565b92505060a06200032389828a01620001bc565b9150509295509295509295565b7f4e487b7100000000000000000000000000000000000000000000000000000000600052602160045260246000fd5b60805160a05160c05160e05161010051610120516101405161152f620003cf6000396000818161079c015261080a015260006106670152600061064401526000610623015260006105e701526000818161027e015261037b0152600081816102bb015261030f015261152f6000f3fe60806040526004361061009c5760003560e01c80634585e33b116100645780634585e33b14610155578063473f1ddc1461017e57806353a2c19a146101a95780636e04ff0d146101d457806391ad27b414610212578063e55ae4e81461023d5761009c565b806309bc33a7146100a1578063115cbaf5146100cc5780631fe543e3146100f75780632cfcc53914610120578063320229eb1461012a575b600080fd5b3480156100ad57600080fd5b506100b661027a565b6040516100c39190610c2b565b60405180910390f35b3480156100d857600080fd5b506100e16102a2565b6040516100ee9190610cbd565b60405180910390f35b34801561010357600080fd5b5061011e60048036038101906101199190610e71565b6102b9565b005b610128610379565b005b34801561013657600080fd5b5061013f610526565b60405161014c9190610c2b565b60405180910390f35b34801561016157600080fd5b5061017c60048036038101906101779190610f28565b610530565b005b34801561018a57600080fd5b50610193610720565b6040516101a09190610fb6565b60405180910390f35b3480156101b557600080fd5b506101be61074a565b6040516101cb9190610c2b565b60405180910390f35b3480156101e057600080fd5b506101fb60048036038101906101f69190611086565b610759565b604051610209929190611172565b60405180910390f35b34801561021e57600080fd5b50610227610806565b6040516102349190610c2b565b60405180910390f35b34801561024957600080fd5b50610264600480360381019061025f91906111a2565b61082e565b6040516102719190610fb6565b60405180910390f35b60007f0000000000000000000000000000000000000000000000000000000000000000905090565b6000600160149054906101000a900460ff16905090565b7f000000000000000000000000000000000000000000000000000000000000000073ffffffffffffffffffffffffffffffffffffffff163373ffffffffffffffffffffffffffffffffffffffff161461036b57337f00000000000000000000000000000000000000000000000000000000000000006040517f1cf993f40000000000000000000000000000000000000000000000000000000081526004016103629291906111cf565b60405180910390fd5b6103758282610875565b5050565b7f0000000000000000000000000000000000000000000000000000000000000000341015610412576103e06040518060400160405280601481526020017f3d3d3d3d3d3d3d3d6d73672076616c75653d3d3d00000000000000000000000081525034610aa6565b6040517f74938f2700000000000000000000000000000000000000000000000000000000815260040160405180910390fd5b60018081111561042557610424610c46565b5b600160149054906101000a900460ff16600181111561044757610446610c46565b5b0361047e576040517fd6e19a8d00000000000000000000000000000000000000000000000000000000815260040160405180910390fd5b6000339080600181540180825580915050600190039060005260206000200160009091909190916101000a81548173ffffffffffffffffffffffffffffffffffffffff021916908373ffffffffffffffffffffffffffffffffffffffff1602179055503373ffffffffffffffffffffffffffffffffffffffff167f0805e1d667bddb8a95f0f09880cf94f403fb596ce79928d9f29b74203ba284d460405160405180910390a2565b6000600254905090565b600061054a60405180602001604052806000815250610759565b509050806105b95747600080549050600160149054906101000a900460ff16600181111561057b5761057a610c46565b5b6040517fe059521b0000000000000000000000000000000000000000000000000000000081526004016105b0939291906111f8565b60405180910390fd5b60018060146101000a81548160ff021916908360018111156105de576105dd610c46565b5b021790555060007f000000000000000000000000000000000000000000000000000000000000000073ffffffffffffffffffffffffffffffffffffffff16635d3b1d307f00000000000000000000000000000000000000000000000000000000000000007f000000000000000000000000000000000000000000000000000000000000000060037f000000000000000000000000000000000000000000000000000000000000000060016040518663ffffffff1660e01b81526004016106a89594939291906112a7565b6020604051808303816000875af11580156106c7573d6000803e3d6000fd5b505050506040513d601f19601f820116820180604052508101906106eb919061130f565b9050807fde6349b018d6c03d837b67d9a198a6ba4842546f2295fe963fae141e5dbaef8160405160405180910390a250505050565b6000600160009054906101000a900473ffffffffffffffffffffffffffffffffffffffff16905090565b6000600163ffffffff16905090565b600060606000600160149054906101000a900460ff16600181111561078157610780610c46565b5b6000600181111561079557610794610c46565b5b14905060007f0000000000000000000000000000000000000000000000000000000000000000600254426107c9919061136b565b119050600080600080549050119050600080471190508380156107e95750825b80156107f25750815b80156107fb5750805b955050505050915091565b60007f0000000000000000000000000000000000000000000000000000000000000000905090565b60008082815481106108435761084261139f565b5b9060005260206000200160009054906101000a900473ffffffffffffffffffffffffffffffffffffffff169050919050565b60008080549050826000815181106108905761088f61139f565b5b60200260200101516108a291906113fd565b905060008082815481106108b9576108b861139f565b5b9060005260206000200160009054906101000a900473ffffffffffffffffffffffffffffffffffffffff16905080600160006101000a81548173ffffffffffffffffffffffffffffffffffffffff021916908373ffffffffffffffffffffffffffffffffffffffff1602179055506000600160146101000a81548160ff0219169083600181111561094d5761094c610c46565b5b0217905550600067ffffffffffffffff81111561096d5761096c610d2e565b5b60405190808252806020026020018201604052801561099b5781602001602082028036833780820191505090505b50600090805190602001906109b1929190610b6b565b504260028190555060008173ffffffffffffffffffffffffffffffffffffffff16476040516109df9061145f565b60006040518083038185875af1925050503d8060008114610a1c576040519150601f19603f3d011682016040523d82523d6000602084013e610a21565b606091505b5050905080610a5c576040517fba31c4f300000000000000000000000000000000000000000000000000000000815260040160405180910390fd5b8173ffffffffffffffffffffffffffffffffffffffff167f5b690ec4a06fe979403046eaeea5b3ce38524683c3001f662c8b5a829632f7df60405160405180910390a25050505050565b610b3e8282604051602401610abc9291906114c9565b6040516020818303038152906040527f9710a9d0000000000000000000000000000000000000000000000000000000007bffffffffffffffffffffffffffffffffffffffffffffffffffffffff19166020820180517bffffffffffffffffffffffffffffffffffffffffffffffffffffffff8381831617835250505050610b42565b5050565b60008151905060006a636f6e736f6c652e6c6f679050602083016000808483855afa5050505050565b828054828255906000526020600020908101928215610be4579160200282015b82811115610be35782518260006101000a81548173ffffffffffffffffffffffffffffffffffffffff021916908373ffffffffffffffffffffffffffffffffffffffff16021790555091602001919060010190610b8b565b5b509050610bf19190610bf5565b5090565b5b80821115610c0e576000816000905550600101610bf6565b5090565b6000819050919050565b610c2581610c12565b82525050565b6000602082019050610c406000830184610c1c565b92915050565b7f4e487b7100000000000000000000000000000000000000000000000000000000600052602160045260246000fd5b60028110610c8657610c85610c46565b5b50565b6000819050610c9782610c75565b919050565b6000610ca782610c89565b9050919050565b610cb781610c9c565b82525050565b6000602082019050610cd26000830184610cae565b92915050565b6000604051905090565b600080fd5b600080fd5b610cf581610c12565b8114610d0057600080fd5b50565b600081359050610d1281610cec565b92915050565b600080fd5b6000601f19601f8301169050919050565b7f4e487b7100000000000000000000000000000000000000000000000000000000600052604160045260246000fd5b610d6682610d1d565b810181811067ffffffffffffffff82111715610d8557610d84610d2e565b5b80604052505050565b6000610d98610cd8565b9050610da48282610d5d565b919050565b600067ffffffffffffffff821115610dc457610dc3610d2e565b5b602082029050602081019050919050565b600080fd5b6000610ded610de884610da9565b610d8e565b90508083825260208201905060208402830185811115610e1057610e0f610dd5565b5b835b81811015610e395780610e258882610d03565b845260208401935050602081019050610e12565b5050509392505050565b600082601f830112610e5857610e57610d18565b5b8135610e68848260208601610dda565b91505092915050565b60008060408385031215610e8857610e87610ce2565b5b6000610e9685828601610d03565b925050602083013567ffffffffffffffff811115610eb757610eb6610ce7565b5b610ec385828601610e43565b9150509250929050565b600080fd5b60008083601f840112610ee857610ee7610d18565b5b8235905067ffffffffffffffff811115610f0557610f04610ecd565b5b602083019150836001820283011115610f2157610f20610dd5565b5b9250929050565b60008060208385031215610f3f57610f3e610ce2565b5b600083013567ffffffffffffffff811115610f5d57610f5c610ce7565b5b610f6985828601610ed2565b92509250509250929050565b600073ffffffffffffffffffffffffffffffffffffffff82169050919050565b6000610fa082610f75565b9050919050565b610fb081610f95565b82525050565b6000602082019050610fcb6000830184610fa7565b92915050565b600080fd5b600067ffffffffffffffff821115610ff157610ff0610d2e565b5b610ffa82610d1d565b9050602081019050919050565b82818337600083830152505050565b600061102961102484610fd6565b610d8e565b90508281526020810184848401111561104557611044610fd1565b5b611050848285611007565b509392505050565b600082601f83011261106d5761106c610d18565b5b813561107d848260208601611016565b91505092915050565b60006020828403121561109c5761109b610ce2565b5b600082013567ffffffffffffffff8111156110ba576110b9610ce7565b5b6110c684828501611058565b91505092915050565b60008115159050919050565b6110e4816110cf565b82525050565b600081519050919050565b600082825260208201905092915050565b60005b83811015611124578082015181840152602081019050611109565b83811115611133576000848401525b50505050565b6000611144826110ea565b61114e81856110f5565b935061115e818560208601611106565b61116781610d1d565b840191505092915050565b600060408201905061118760008301856110db565b81810360208301526111998184611139565b90509392505050565b6000602082840312156111b8576111b7610ce2565b5b60006111c684828501610d03565b91505092915050565b60006040820190506111e46000830185610fa7565b6111f16020830184610fa7565b9392505050565b600060608201905061120d6000830186610c1c565b61121a6020830185610c1c565b6112276040830184610c1c565b949350505050565b6000819050919050565b6112428161122f565b82525050565b600067ffffffffffffffff82169050919050565b61126581611248565b82525050565b600061ffff82169050919050565b6112828161126b565b82525050565b600063ffffffff82169050919050565b6112a181611288565b82525050565b600060a0820190506112bc6000830188611239565b6112c9602083018761125c565b6112d66040830186611279565b6112e36060830185611298565b6112f06080830184611298565b9695505050505050565b60008151905061130981610cec565b92915050565b60006020828403121561132557611324610ce2565b5b6000611333848285016112fa565b91505092915050565b7f4e487b7100000000000000000000000000000000000000000000000000000000600052601160045260246000fd5b600061137682610c12565b915061138183610c12565b9250828210156113945761139361133c565b5b828203905092915050565b7f4e487b7100000000000000000000000000000000000000000000000000000000600052603260045260246000fd5b7f4e487b7100000000000000000000000000000000000000000000000000000000600052601260045260246000fd5b600061140882610c12565b915061141383610c12565b925082611423576114226113ce565b5b828206905092915050565b600081905092915050565b50565b600061144960008361142e565b915061145482611439565b600082019050919050565b600061146a8261143c565b9150819050919050565b600081519050919050565b600082825260208201905092915050565b600061149b82611474565b6114a5818561147f565b93506114b5818560208601611106565b6114be81610d1d565b840191505092915050565b600060408201905081810360008301526114e38185611490565b90506114f26020830184610c1c565b939250505056fea2646970667358221220b6fb4a72ded8fbdd16f951d2b4389726f99f907816d1c735eef559010b72264264736f6c634300080e0033",
  "devdoc": {
    "kind": "dev",
    "methods": {},
    "version": 1
  },
  "userdoc": {
    "kind": "user",
    "methods": {},
    "version": 1
  },
  "storageLayout": {
    "storage": [
      {
        "astId": 1234,
        "contract": "contracts/Raffle.sol:Raffle",
        "label": "s_players",
        "offset": 0,
        "slot": "0",
        "type": "t_array(t_address_payable)dyn_storage"
      },
      {
        "astId": 1251,
        "contract": "contracts/Raffle.sol:Raffle",
        "label": "s_recentWinner",
        "offset": 0,
        "slot": "1",
        "type": "t_address_payable"
      },
      {
        "astId": 1254,
        "contract": "contracts/Raffle.sol:Raffle",
        "label": "s_raffleState",
        "offset": 20,
        "slot": "1",
        "type": "t_enum(RaffleState)1229"
      },
      {
        "astId": 1256,
        "contract": "contracts/Raffle.sol:Raffle",
        "label": "s_lastTimeStamp",
        "offset": 0,
        "slot": "2",
        "type": "t_uint256"
      }
    ],
    "types": {
      "t_address_payable": {
        "encoding": "inplace",
        "label": "address payable",
        "numberOfBytes": "20"
      },
      "t_array(t_address_payable)dyn_storage": {
        "base": "t_address_payable",
        "encoding": "dynamic_array",
        "label": "address payable[]",
        "numberOfBytes": "32"
      },
      "t_enum(RaffleState)1229": {
        "encoding": "inplace",
        "label": "enum Raffle.RaffleState",
        "numberOfBytes": "1"
      },
      "t_uint256": {
        "encoding": "inplace",
        "label": "uint256",
        "numberOfBytes": "32"
      }
    }
  }
}